:020000040000fa
:080000000013040000000000e1
:020000040000fa
:1000080002100000061000000a1000000e10000088
:1000180012100000161000001a1000001e10000038
:1000280022100000261000002a1000002e100000e8
:1000380032100000361000003a1000003e10000098
:1000480042100000461000004a1000004e10000048
:1000580052100000561000005a1000005e100000f8
:1000680062100000661000006a1000006e100000a8
:1000780072100000761000007a1000007e10000058
:1000880082100000861000008a1000008e10000008
:1000980092100000961000009a1000009e100000b8
:1000a800a2100000a6100000aa100000ae10000068
:1000b800b2100000b6100000ba100000be10000018
:1000c800c2100000c6100000ca100000ce100000c8
:1000d800d2100000d6100000da100000de10000078
:1000e800e2100000e6100000ea100000ee10000028
:1000f800f2100000f6100000fa100000fe100000d8
:1001080002110000061100000a1100000e11000083
:1001180012110000161100001a1100001e11000033
:1001280022110000261100002a1100002e110000e3
:1001380032110000361100003a1100003e11000093
:1001480042110000461100004a1100004e11000043
:1001580052110000561100005a1100005e110000f3
:1001680062110000661100006a1100006e110000a3
:1001780072110000761100007a1100007e11000053
:1001880082110000861100008a1100008e11000003
:1001980092110000961100009a1100009e110000b3
:1001a800a2110000a6110000aa110000ae11000063
:1001b800b2110000b6110000ba110000be11000013
:1001c800c2110000c6110000ca110000ce110000c3
:1001d800d2110000d6110000da110000de11000073
:1001e800e2110000e6110000ea110000ee11000023
:1001f800f2110000f6110000fa110000fe110000d3
:1002080002120000061200000a1200000e1200007e
:1002180012120000161200001a1200001e1200002e
:1002280022120000261200002a1200002e120000de
:1002380032120000361200003a1200003e1200008e
:1002480042120000461200004a1200004e1200003e
:1002580052120000561200005a1200005e120000ee
:020000040000fa
:10200000020000000e140400000000000e14040082
:10201000000000000e140400000000000e14040074
:10202000000000000e140400000000000e14040064
:10203000000000000e140400000000000e14040054
:10204000000000000e140400000000000e14040044
:10205000000000000e140400000000008c140400b6
:10206000000000000e140400000000000e14040024
:10207000000000000e140400000000000e14040014
:10208000000000000e140400000000000e14040004
:10209000000000000e140400000000006a14040098
:1020a000000000003e140400000000000e140400b4
:1020b000000000000e140400000000000e140400d4
:1020c000000000000e140400000000000e140400c4
:1020d000000000000e140400000000000e140400b4
:1020e000000000000e140400000000000e140400a4
:1020f000000000000e140400000000000e14040094
:10210000000000000e140400000000000e14040083
:10211000000000000e140400000000000e14040073
:10212000000000000e140400000000000e14040063
:10213000000000000e140400000000000e14040053
:10214000000000000e140400000000000e14040043
:10215000000000000e140400000000000e14040033
:10216000000000000e140400000000000e14040023
:10217000000000000e140400000000000e14040013
:10218000000000000e140400000000000e14040003
:10219000000000000e140400000000000e140400f3
:1021a000000000000e140400000000000e140400e3
:1021b000000000000e140400000000000e140400d3
:1021c000000000000e140400000000000e140400c3
:1021d000000000000e140400000000000e140400b3
:1021e000000000000e140400000000000e140400a3
:1021f000000000000e140400000000000e14040093
:10220000000000000e140400000000000e14040082
:10221000000000000e140400000000000e14040072
:10222000000000000e140400000000000e14040062
:10223000000000000e140400000000000e14040052
:10224000000000000e140400000000000e14040042
:10225000000000000e140400000000000e14040032
:10226000000000000e140400000000000e14040022
:10227000000000000e140400000000000e14040012
:10228000000000000e140400000000000e14040002
:10229000000000000e140400000000000e140400f2
:1022a000000000000e140400000000000e140400e2
:1022b000000000000e140400000000000e140400d2
:1022c000000000000e140400000000000e140400c2
:1022d000000000000e140400000000000e140400b2
:1022e000000000000e140400000000000e140400a2
:1022f000000000000e140400000000000e14040092
:10230000000000000e140400000000000e14040081
:10231000000000000e140400000000000e14040071
:10232000000000000e140400000000000e14040061
:10233000000000000e140400000000000e14040051
:10234000000000000e140400000000000e14040041
:10235000000000000e140400000000000e14040031
:10236000000000000e140400000000000e14040021
:10237000000000000e140400000000000e14040011
:10238000000000000e140400000000000e14040001
:10239000000000000e140400000000000e140400f1
:1023a000000000000e140400000000000e140400e1
:1023b000000000000e140400000000000e140400d1
:1023c000000000000e140400000000000e140400c1
:1023d000000000000e140400000000000e140400b1
:1023e000000000000e140400000000000e140400a1
:1023f000000000000e140400000000000e14040091
:10240000000000000e140400000000000e14040080
:10241000000000000e140400000000000e14040070
:10242000000000000e140400000000000e14040060
:10243000000000000e140400000000000e14040050
:10244000000000000e140400000000000e14040040
:10245000000000000e140400000000000e14040030
:10246000000000000e140400000000000e14040020
:10247000000000000e140400000000000e14040010
:10248000000000000e140400000000000e14040000
:10249000000000000e140400000000000e140400f0
:1024a000000000000e140400000000000e140400e0
:1024b000000000000e140400000000000e140400d0
:0424c0000000000018
:020000040000fa
:102600006fd321000eff27000e018800000000009c
:10261000000020000000e000020032000001200065
:102620002002880014000700ce0007000000e00030
:1026300003003a00007a2400010020000200370065
:102640000000200001002000810f70000100320016
:102650000f000700000020000000e0000200320030
:10266000000002000000000024370200000000000b
:102670000040da000000fe00e08920000000e000d9
:1026800002003200002020009001880000000600b7
:10269000a1028800800478000000eb001f003700d2
:1026a000e284440054a0b4009905ba00e2844400d6
:1026b00054a0b4009906ba00e284440054a0b400c7
:1026c0000006eb00476fde00fd07b200ae01880098
:1026d000636ce10003003a000ad801000000eb003f
:1026e0000e003700606ce10008003a00004deb007e
:1026f0000a05e800020039003420ec000af0a000ce
:102700008b05e900f9ff3e00040037006168e10035
:10271000010032000086eb000b00070019c7ba0069
:102720000e04e0001905ba0003003a000a00e000b8
:10273000dbff3a0000000600fe07b200ae02880090
:102740008a047800f5ff37000cd0a300e20f4d009b
:102750001c00390089027800354dba000a05e800ee
:10276000020039003420ec000af0a0008b05e900db
:102770000f003200254dba000a05e80002003900ba
:102780003420ec000af0a0008b05e90008003200bc
:102790000c00e0000600320015cdba000a05e80082
:1027a000020039003420ec000af0a0008b05e9009b
:1027b0008984e80054a0b4000b00e000e2ff3a0076
:1027c000000006009902ba00055d78008b05e9005b
:1027d000f7ff3200c82ade00055d78008b05e900ae
:1027e000f3ff32000c00e000f1ff320019ddba0007
:1027f000eeff3700fc1e040000000000721d040004
:1028000000000000c62b0400000000007620040039
:1028100000000000881e0400000000003600f800e0
:10282000809fbe00829fbe00849fbe00869fbe0028
:102830003200f8003400f80010002000a0018800e9
:10284000002020009001880000000000c808f80067
:102850008a10f900404d2900971407003400f90050
:102860003200f9004f03be004f02be004f01be0010
:102870004f00be003600f90000400600809fbe00f9
:10288000000021009000900020009000808f5000f8
:1028900002003a002188a9000c0037000430ec0047
:1028a000000420000410e30001003a000430ef00af
:1028b0000188a9000000210090007800200090000d
:1028c000008040001080fb00201188004f00be00f7
:1028d00000400600809fbe00821f78000168a900aa
:1028e000311180000a30ec00000420000a10e300df
:1028f00001003a000a30ef0080002100100178004a
:102900001000900000004100014878004f0178005d
:102910004f00be00004006003600f800809fbe0059
:10292000829fbe00849fbe00869fbe00e083800021
:10293000f183800061004000e0804800e08388006f
:10294000f18388000068a9007a1007004f03be00d9
:102950004f02be004f01be004f00be003600f9001e
:1029600000400600000005006022b80006022000ba
:102970000000d0008180d2000482d2008582d20083
:102980000000a0000202520083825a0003003100be
:102990000202420083824a000000a1000603e9000f
:0829a000f3ff3a0000000600fd
:020000040000fa
:1029a800556e0000686100006e6400006c650000f0
:1029b80064200000696e00007465000072720000f7
:1029c80075700000742c0000200000006473000083
:1029d80050490000433300003345000050350000e3
:1029e8003132000047500000383000003600000047
:1029f800756e00006b6e00006f7700006e000000bf
:102a08004231000000440000657600006963000060
:102a18006520000049440000203d0000200000001f
:102a280020280000002900002c200000726500000a
:102a380076690000736900006f6e000020000000d6
:102a4800290a0000000a00000a2a00002a2a0000b9
:102a58002a2a00002a2a00002a2a00002a2a00001e
:102a68002a2a00002a2a00002a2a00002a2a00000e
:102a78002a2a00002a2a00002a2a00002a2a0000fe
:102a88002a2a00002a2a00002a2a00002a2a0000ee
:102a98002a2a00002a2a00002a2a00002a2a0000de
:102aa8002a2a00002a2a00002a2a00002a2a0000ce
:102ab8002a2a00002a0a00002a20000057410000a4
:102ac800524e0000494e0000472000002d20000013
:102ad800746800006973000020700000726f0000c5
:102ae80067720000616d00002077000061730000cc
:102af800206300006f6d0000706900006c650000c5
:102b080064200000666f00007220000074680000f6
:102b180065200000777200006f6e000067200000db
:102b2800202a00000a2a00002063000068690000cb
:102b3800702e000020540000686900007320000017
:102b4800707200006f670000726100006d20000065
:102b58006d61000079200000707200006f64000051
:102b68007563000065200000756e00006578000040
:102b78007065000063740000656400002062000056
:102b880065680000766900006f720000212000006f
:102b98002a0a00002a200000456400006974000029
:102ba800207400006865000020680000656100006e
:102bb8006465000072200000666900006c65000012
:102bc80073200000746f000020700000726f000016
:102bd80070650000726c00007920000064650000d8
:102be800666900006e6500002074000068690000d6
:102bf800732000006368000069700000202a00004c
:102c08000a2a0000206100006e64000020740000a1
:102c18006f200000696e0000737500007265000087
:102c2800206300006f72000072650000637400008a
:102c3800206f000070650000726100007469000078
:102c48006f6e00002e2000002020000020200000d1
:102c5800202000002020000020200000202000006c
:102c68002020000020200000202000002a0a000068
:102c78002a20000020200000202000002020000042
:102c8800202000002020000020200000202000003c
:102c9800202000002020000020200000202000002c
:102ca800202000002020000020200000202000001c
:102cb800202000002020000020200000202000000c
:102cc80020200000202000002020000020200000fc
:102cd8002020000020200000202a00000a2a0000ee
:102ce800204e00004f540000453a000020490000e3
:102cf80066200000746800006973000020770000f7
:102d080061730000206300006f6d000070690000af
:102d18006c65000064200000666f000072200000ef
:102d28007468000065200000636f00007272000084
:102d3800656300007420000063680000697000008b
:102d48002c200000202000002a0a00002a20000071
:102d5800616e0000642000006f6e00006c79000056
:102d6800206f00006363000075720000732000008c
:102d780061740000207000006f7700006572000029
:102d88002d6f00006e200000286e00006f74000098
:102d98002064000075720000696e00006720000062
:102da800612000004d4300004c520000202000002c
:102db80020200000202a00000a2a000020720000bb
:102dc8006573000065740000292c0000207600005f
:102dd80065720000696600007920000074680000d0
:102de80061740000204100005644000044200000a7
:102df800616e00006420000041560000535300003b
:102e08002061000072650000206300006f6e000002
:102e18006e65000063740000656400002e200000e9
:102e2800202000002a0a00002a2000004f6e00001f
:102e3800207400006865000020500000494300002d
:102e4800323400004833000032470000503200009e
:102e5800303200002c2000006e6f0000742000004b
:102e6800636f00006e6e0000656300007469000007
:102e78006e67000020410000564400004420000016
:102e8800202000002020000020200000202000003a
:102e9800202a00000a2a000020700000726f00003b
:102ea800647500006365000073200000746800000a
:102eb80069730000206d00006573000073610000f5
:102ec80067650000206f00006e6c0000792000002c
:102ed80061740000207000006f77000065720000c8
:102ee8002d750000702e000020200000202000001a
:102ef80020200000202000002020000020200000ca
:102f08002a0a00002a2a00002a2a00002a2a000089
:102f18002a2a00002a2a00002a2a00002a2a000059
:102f28002a2a00002a2a00002a2a00002a2a000049
:102f38002a2a00002a2a00002a2a00002a2a000039
:102f48002a2a00002a2a00002a2a00002a2a000029
:102f58002a2a00002a2a00002a2a00002a2a000019
:102f68002a2a00002a2a00002a2a00002a2a000009
:102f78000a0000004661000073740000205200003f
:102f8800432000004f730000630a00000046000061
:102f9800617300007420000052430000204f0000bd
:102fa8007363000020770000697400006820000047
:102fb800504c00004c0a00000050000072690000ec
:102fc8006d61000072790000204f000073630000fb
:102fd80020280000585400002c200000485300000e
:102fe8002c20000045430000290a00000050000082
:102ff800726900006d61000072790000204f0000c6
:103008007363000020280000585400002c200000a2
:10301800485300002c2000004543000029200000f0
:103028007769000074680000205000004c4c0000d4
:103038000a00000053650000636f00006e64000022
:1030480061720000792000004f730000630a0000dd
:10305800004c00006f770000205000006f770000e0
:103068006572000020520000432000004f730000ea
:10307800630a00000046000061730000742000002d
:1030880052430000204f0000736300002f310000fe
:10309800360a00000046000061730000742000003a
:1030a80052430000204f0000736300002f4e0000c1
:1030b8000a000000556e00006b6e00006f7700007c
:1030c8006e2000006f730000636900006c6c0000e4
:1030d800617400006f7200002074000079700000b5
:1030e800652e0000000a00004465000076690000b3
:1030f8006365000020680000617300002062000022
:10310800656500006e200000696e000020730000f5
:103118006c65000065700000206d00006f640000a1
:10312800650a0000000a0000446500007669000096
:1031380063650000206800006173000020620000e1
:10314800656500006e200000696e000020690000bf
:10315800646c0000652000006d6f0000646500006d
:103168000a0000000a520000657300006574000040
:103178002063000061750000736500003a200000bc
:10318800005000006f770000657200002d6f00008e
:103198006e2e00000a000000536f000066740000e5
:1031a800776100007265000020520000657300001e
:1031b800657400002e0a00000057000061740000ca
:1031c80063680000646f0000672000005469000015
:1031d8006d6500006f750000743a00002000000063
:1031e8000a0000004d4300004c520000206100001e
:1031f8007373000065720000746900006f6e000050
:103208002e0a000000420000726f0000776e000076
:103218002d6f0000757400002e0a00000054000095
:103228007261000070200000436f00006e660000ad
:103238006c690000637400002e0a00000049000059
:103248006c6c000065670000616c000020430000a2
:103258006f6e000064690000746900006f6e000002
:103268002e0a0000004300006f6e0000666900002f
:103278006775000072610000746900006f6e0000dd
:10328800204d0000697300006d6100007463000048
:10329800682e00000a000000556e00006b6e0000ea
:1032a8006f7700006e2000007265000073650000f3
:1032b800742e00000a00000045720000726f0000c2
:1032c80072200000747200006170000070650000d8
:1032d800643a00002000000050720000696f00008e
:1032e80072690000747900003a200000002c000088
:1032f8002056000065630000746f00007220000013
:103308006e7500006d620000657200003a200000d2
:10331800000a00000a0000000a2d00002d2d000000
:1033280054410000534b000020330000204d0000a2
:10333800454e0000552d00002d2d00000a0000000c
:1033480054690000636b0000732000006265000090
:1033580074770000656500006e200000646f00004f
:10336800756200006c6500002d7000007265000039
:1033780073730000202800006d730000293a0000d4
:10338800200000000a4500006e740000657200000d
:1033980020610000206e0000756d0000626500006d
:1033a800722000006c650000737300002074000038
:1033b800686100006e200000313000003a200000f3
:1033c800000a0000557300006572000020690000c3
:1033d8006e70000075740000206400006f750000b6
:1033e800626c0000652d00007072000065730000bb
:1033f80073200000766100006c750000653a0000db
:10340800200000000a0a0000496e000070750000e4
:1034180074200000746900006d65000020620000df
:103428006574000077650000656e0000205200009a
:1034380050470000207400006872000065730000a7
:10344800686f00006c640000733a00002000000000
:103458000a5500007365000072200000696e0000c4
:1034680070750000742000005250000047200000d2
:103478007468000072650000736800006f6c0000db
:1034880064200000766100006c750000653a000059
:10349800200000000a53000057310000207000008f
:1034a800726500007373000065640000000a000084
:1034b8005357000031200000646f0000756200005f
:1034c8006c6500002d7000007265000073730000c9
:1034d80065640000000a0000535700003220000015
:1034e80070720000657300007365000064000000de
:1034f8000a53000057320000206400006f75000076
:10350800626c0000652d0000707200006573000099
:1035180073650000640000000a4e00006f20000080
:103528006d6f0000766500006d6500006e74000028
:10353800206f00006e20000052500000470000007d
:103548000a52000050470000207400007572000005
:103558006e6900006e67000020660000617300005d
:103568007420000043570000000a00005250000079
:103578004720000074750000726e0000696e00003c
:10358800672000006d65000064690000756d00002b
:1035980020430000570000000a5200005047000076
:1035a80020740000757200006e6900006e670000ec
:1035b800207300006c6f0000772000004357000064
:1035c800000a0000525000004720000074750000f7
:1035d800726e0000696e000067200000736c0000c6
:1035e8006f770000204300004357000020000000d0
:1035f8000a52000050470000207400007572000055
:103608006e6900006e670000206d000065640000b0
:10361800697500006d20000043430000570000005a
:103628000a52000050470000207400007572000024
:103638006e6900006e67000020660000617300007c
:10364800742000004343000057200000000a0000d7
:1036580062750000696c0000645c0000657300001e
:103668006f7300005f6500006d6200006564000014
:103678006465000064460000313400005f330000d8
:10368800334500005035000031320000475000003b
:1036980038300000365c000063680000617000008c
:1036a800313400005c740000335f0000617000007a
:1036b800702e0000632c0000206200007569000075
:1036c8006c740000206f00006e200000536500003d
:1036d800702000003232000020320000303200003a
:1036e800302000006174000020310000343a0000ee
:1036f800353100003a300000350a000000000000b3
:103708005541000052540000312000007061000053
:103718007269000074790000206500007272000070
:103728006f7200000a00000055410000525400006a
:103738003120000066720000616d0000696e0000b3
:103748006720000065720000726f0000720a0000b6
:10375800005500004152000054310000206f000065
:103768007665000072720000756e0000206500002a
:10377800727200006f7200000a00000055410000dc
:10378800525400003220000070610000726900008d
:103798007479000020650000727200006f720000ea
:1037a8000a00000055410000525400003220000079
:1037b80066720000616d0000696e000067200000fd
:1037c80065720000726f0000720a00000055000068
:1037d8004152000054320000206f0000766500005e
:1037e80072720000756e00002065000072720000a1
:1037f8006f7200000a00000055410000525400009a
:1038080033200000706100007269000074790000c4
:1038180020650000727200006f7200000a0000004c
:103828005541000052540000332000006672000029
:10383800616d0000696e000067200000657200007d
:10384800726f0000720a000000550000415200002b
:1038580054330000206f000076650000727200008b
:10386800756e000020650000727200006f72000023
:103878000a000000554100005254000034200000a6
:103888007061000072690000747900002065000012
:10389800727200006f7200000a00000055410000bb
:1038a800525400003420000066720000616d000070
:1038b800696e00006720000065720000726f0000ea
:1038c800720a000000550000415200005434000004
:1038d800206f00007665000072720000756e0000af
:1038e80020650000727200006f7200000a0000007c
:1038f8003078000000450000727200006f7200000e
:10390800206900006e20000062750000696c0000ec
:10391800645c0000657300006f7300005f65000061
:103928006d62000065640000646500006446000084
:10393800313400005f33000033450000503500008b
:10394800313200004750000038300000365c00007b
:103958006c690000625c000073720000635c000028
:103968007069000063320000345f00007365000076
:1039780072690000616c00002e630000206c00007a
:10398800696e00006520000032390000363a0000f8
:10399800204900006e760000616c00006964000038
:1039a80020550000415200005400000045720000fc
:1039b800726f000072200000696e00002062000033
:1039c800756900006c6400005c650000736f00009e
:1039d800735f0000656d00006265000064640000ac
:1039e8006564000046310000345f00003333000096
:1039f80045500000353100003247000050380000c3
:103a0800303600005c6c0000696200005c730000e6
:103a1800726300005c7000006963000032340000cb
:103a28005f73000065720000696100006c2e000081
:103a3800632000006c6900006e6500002033000000
:103a4800333500003a200000496e0000766100001e
:103a58006c690000642000005541000052540000c9
:103a680000050000030200000100000050c3000030
:103a780030750000204e0000102700008813000059
:103a8800b80b0000d0070000e8030000f4010000b4
:103a98002c010000c8000000640000003200000093
:103aa8001e000000140000000a00000005000000cd
:103ab80003000000020000000100000005030000f0
:103ac800020100000503000002010000321e000090
:0c3ad800140a00000503000002010000b9
:020000040000fa
:103ae400a04090000174a00021409800900078004c
:103af4000100e00004003200a2062000828f500082
:103b04006a003a0056003700018280000100e0009c
:103b140012003a00130eab0007003a00132eab005c
:103b240005003200110020000182880061828800b3
:103b34004830ec0045003700130eab004300320060
:103b4400132eab0041003a003100200001828800ae
:103b54004c30ef004830ed003c003700e18f50005e
:103b640012003a00130eab0008003200132eab0013
:103b7400060032002100200001828800110020008c
:103b8400618288004830ec0030003700130eab002f
:103b94002e003a00132eab002c003a004030ef0008
:103ba4004c30ef004830ed0028003700e28f500021
:103bb40013003a00130eab0008003200132eab00c2
:103bc40006003a0031002000018288001100200024
:103bd400618288004830ec001c003700130eab00f3
:103be4001a003a00132eab00180032001100200016
:103bf400018288004c30ef004830ed00130037009c
:103c0400e38f500011003a00130eab0006003a0097
:103c1400132eab0004003a004030ef004c30ef00ac
:103c24004830ec0009003700130eab0007003200e7
:103c3400132eab0005003200210020000182880011
:103c440011002000618288004830ed00a0409000ff
:103c54000174a10021409800a10620000108780009
:103c6400a04090000128a3000400320041c0b3002a
:103c74002140980031c0b3000d0037000104e0007a
:103c840003003d000104a100214098000200370018
:103c94000104a00021409800204190008040eb00e6
:103ca4000208a30098ff320001003700010037002a
:103cb400014078000000060070e5800061006000ab
:103cc4004400dd00a17280000140a1008100700069
:103cd400a172880090e58000610060004e00dd0064
:103ce400a170800001e0a10081007000a170880033
:103cf400b0e580004f00dd00a170800001f0a1005c
:103d040081007000a170880000000600881f780000
:103d140000047800284090000074a000204498001b
:103d2400180078000000e0000400320011032000b5
:103d3400810f500029003a0009003700db14070006
:103d44003004980041049800200320000100200062
:103d5400500498006104980010032000000c7800bf
:103d6400284090000028a3000400320040c0b300a3
:103d74002044980030c0b3001c0037005801900064
:103d8400e801900038009000c8009000540b070030
:103d94000000e00004003200284090000004a1006c
:103da4002044980003003700284090000004a0003d
:103db40020449800a84090000040eb000108a300b4
:103dc4000a003a00220ee200020035004e10a8005c
:103dd400daff37004e10a900d8ff370080c0b300c7
:103de40020449800000ceb0030c0b3004f0478006e
:103df40000000600881f7800000478002840900026
:103e04000074a00020449800180078000000e0002e
:103e140004003200910d2000810f500024003a006c
:103e240009003700a11407003004980041049800e9
:103e3400a0002000010020005004980061049800b4
:103e4400900d2000000c7800284090000028a3006a
:103e54000400320040c0b3002044980030c0b300d6
:103e64001700370058019000e801900038009000d6
:103e7400c80090001a0b07000000e00004003200a4
:103e8400284090000004a10020449800030037005b
:103e9400284090000004a00020449800a84090000e
:103ea4000040eb000108a300deff320004003700ed
:103eb40080c0b30020449800000ceb0030c0b30075
:103ec4004f047800000006007b1407000000060081
:103ed4001faea90011aea8001baea9001daea9001b
:103ee4001baea800b003200001002000f6ff07006d
:103ef400000006001f8ea900118ea8001b8ea900c9
:103f04001d8ea9001b8ea800b00320000100200014
:103f1400edff07000000060021eea8002beea9002b
:103f24002deea9002beea800b00320000100200014
:103f3400e5ff0700000006001f0ea900110ea800ef
:103f44001b0ea9001d0ea9001b0ea800b003200023
:103f540001002000dcff0700000006001f2ea9005e
:103f6400112ea8001b2ea9001d2ea9001b2ea8008f
:103f7400b003200001002000d3ff0700000006006a
:103f8400d0e5880000000600e0e588000000060097
:103f9400e0c92100100078000000a20000f0a70092
:103fa4000000ea000000e9004f00de000000060007
:103fb400f0e4800000f0a7000000ea000000e9003f
:103fc4004f00de000000060000ca21001000780047
:103fd4000000a20000f0a7000000ea000000e900d1
:103fe4004f00de000000060020ca21001000780007
:103ff4000000a20000f0a7000000ea000000e900b1
:104004004f00de000000060010e5800000f0a7006d
:104014000000ea000000e9004f00de000000060096
:1040240040ca2100100078000000a20000f0a700a0
:104034000000ea000000e9004f00de000000060076
:1040440060ca2100100078000000a20000f0a70060
:104054000000ea000000e9004f00de000000060056
:1040640030e5800000f0a7000000ea000000e9004d
:104074004f00de000000060080ca21001000780016
:104084000000a20000f0a7000000ea000000e90020
:104094004f00de0000000600e0ca21001000780096
:1040a4000000a20000f0a7000000ea000000e90000
:1040b4004f00de000000060070e5800000f0a7005d
:1040c4000000ea000000e9004f00de0000000600e6
:1040d4001000200070e5880000000600e0ca2100fe
:1040e4000008eb0000000600881f78000004780038
:1040f400284190000274a00022449800180078001f
:104104008000eb00f3112000830f5000e08f580073
:1041140032053e00000601001f0137002f0537005d
:104124002e0537002d0537002c0537002b053700e9
:104134002a053700290537002805370027053700e9
:1041440026053700250537002405370023053700e9
:104154002205370021053700200537001f053700e9
:104164001e0537001d0537001c0537001b053700e9
:104174001a053700190537001805370017053700e9
:1041840016053700150537001405370013053700e9
:104194001205370011053700100537000f053700e9
:1041a4000e0537000d0537000c0537000b053700e9
:1041b4000a053700090537000805370007053700e9
:1041c40006053700050537000405370003053700e9
:1041d400020537000105370000053700ff043700ea
:1041e400fe043700fd043700fc043700fb043700ed
:1041f400fa043700f9043700f8043700f7043700ed
:10420400f6043700f5043700f4043700f3043700ec
:10421400f2043700f1043700f0043700ef043700ec
:10422400ee043700ed043700ec043700eb043700ec
:10423400ea043700e9043700e8043700e7043700ec
:10424400e6043700e5043700e4043700e3043700ec
:10425400e2043700e1043700e0043700df043700ec
:10426400de043700dd043700dc043700db043700ec
:10427400da043700d9043700d8043700d7043700ec
:10428400d6043700d5043700d4043700d3043700ec
:10429400d2043700d1043700d0043700cf043700ec
:1042a400ce043700cd043700cc043700cb043700ec
:1042b400ca043700c9043700c8043700c7043700ec
:1042c400c6043700c5043700c4043700c3043700ec
:1042d400c2043700c1043700c0043700bf043700ec
:1042e400be043700ae003700c5003700df003700da
:1042f400f9003700b9043700b8043700100137005b
:1043040028013700b5043700b404370040013700f2
:104314005801370072013700b0043700af0437008a
:10432400ae043700ad0437008c013700a401370018
:10433400be013700a9043700a8043700d5013700af
:10434400ed013700a5043700a40437000502370047
:104354001d02370037023700a00437009f043700de
:104364009e0437009d0437009c0437009b043700eb
:104374009a043700990437009804370097043700eb
:1043840096043700950437009404370093043700eb
:104394005d02370091043700900437008f04370022
:1043a4008e0437008d0437008c0437008b043700eb
:1043b4008a043700890437008804370087043700eb
:1043c40086043700850437008404370083043700eb
:1043d4008204370081043700800437007f043700eb
:1043e4007e0437007d0437007c0437007b043700eb
:1043f40080023700790437007804370077043700e7
:1044040076043700750437007404370073043700ea
:104414007204370071043700700437006f043700ea
:104424006e0437006d0437006c0437006b043700ea
:104434006a043700690437006804370067043700ea
:1044440066043700650437006404370063043700ea
:104454006204370061043700600437005f043700ea
:104464005e043700b10237005c0437005b04370098
:104474005a043700590437005804370057043700ea
:1044840056043700550437005404370053043700ea
:104494005204370051043700500437004f043700ea
:1044a4004e0437004d0437004c0437004b043700ea
:1044b4004a043700490437004804370047043700ea
:1044c40046043700d402370044043700430437005d
:1044d4004204370041043700400437003f043700ea
:1044e4003e0437003d0437003c0437003b043700ea
:1044f4003a043700390437003804370037043700ea
:1045040036043700350437003404370033043700e9
:104514003204370031043700300437002f043700e9
:104524002e0437002d0437002c0437002b043700e9
:104534002a043700fc023700280437001903370027
:1045440026043700370337002404370054033700a8
:104554002204370021043700200437001f043700e9
:104564006f0337001d0437008c0337001b0437002a
:10457400aa03370019043700c703370017043700ac
:1045840016043700150437001404370013043700e9
:10459400dd033700f703370030072000000c7800f4
:1045a4000228a3000400320040c0b3002044980055
:1045b40030c0b3000d043700818280000138a300ad
:1045c40003003a000204a1002244980002003700cc
:1045d4000204a00022449800284190000040eb000f
:1045e4000208a30001043a000130a000818288007f
:1045f400e0c321000008eb0040072000000c780015
:10460400284090000028a3000400320040c0b300fa
:104614002044980030c0b300f40337000199290006
:10462400e0c321004a070700e24f500004003600af
:10463400284090000004a1002044980003003700a3
:10464400284090000004a00020449800a840900056
:104654000040eb000108a300e4033a00e0c321009a
:104664000008eb0050072000000c78002840900060
:104674000028a3000400320040c0b3002044980086
:1046840030c0b300d9033700419a2900e0c32100a8
:104694002f070700e24f5000040036002840900026
:1046a4000004a10020449800030037002840900033
:1046b4000004a00020449800a84090000040eb00b3
:1046c4000108a300c9033a00e0c321000008eb007d
:1046d40060072000000c7800284090000028a30008
:1046e4000400320040c0b3002044980030c0b3003e
:1046f400be033700619c2900e0c3210014070700b2
:10470400e24f500004003600284090000004a1004d
:104714002044980003003700284090000004a000c3
:1047240020449800a84090000040eb000108a3003a
:10473400ae033a005070a90090072000000c7800e6
:10474400284090000028a3000400320040c0b300b9
:104754002044980030c0b300a40337008182800055
:104764000138a30003003a000004a100204498008b
:10477400020037000004a000204498002841900063
:104784000040eb000208a30098033a000130a000a7
:104794008182880000c521000008eb00a0072000ea
:1047a400000c7800284090000028a3000400320088
:1047b40040c0b3002044980030c0b3008b033700de
:1047c40012c0b3006103210000c521005406070094
:1047d400e24f500004003600284090000004a1007d
:1047e4002044980003003700284090000004a000f3
:1047f40020449800a84090000040eb000108a3006a
:104804007a033a005070a900d0072000000c780009
:10481400284090000028a3000400320040c0b300e8
:104824002044980030c0b3007003370081828000b8
:104834000138a30003003a000004a10020449800ba
:10484400020037000004a000204498002841900092
:104854000040eb000208a30064033a000130a0000a
:1048640081828800e0c321000008eb00e0072000fb
:10487400000c7800284090000028a30004003200b7
:1048840040c0b3002044980030c0b3005703370041
:10489400519e2900e0c32100ad060700e24f5000fd
:1048a40004003600284090000004a1002044980031
:1048b40003003700284090000004a0002044980022
:1048c400a84090000040eb000108a30047033a0011
:1048d400e0c321000008eb00f0072000000c780082
:1048e400284090000028a3000400320040c0b30018
:1048f4002044980030c0b3003c033700610321001a
:1049040091407800e0c321004b040700e24f5000bf
:1049140004003600284090000004a10020449800c0
:1049240003003700284090000004a00020449800b1
:10493400a84090000040eb000108a3002b033a00bc
:104944005070a90036d0bf00a2c0b3000440bc0020
:10495400c281880040082000000c780028409000a4
:104964000028a3000400320040c0b3002044980093
:1049740030c0b3001d033700818280000138a300da
:1049840003003a000004a10020449800020037000c
:104994000004a00020449800284190000040eb004f
:1049a4000208a30011033a000130a00081828800ac
:1049b400e0c321000008eb0050082000000c780040
:1049c400284090000028a3000400320040c0b30037
:1049d4002044980030c0b3000403370061a02900cc
:1049e400e0c321005a060700e24f500004003600dd
:1049f400284090000004a1002044980003003700e0
:104a0400284090000004a00020449800a840900092
:104a14000040eb000108a300f4023a00e0c32100c7
:104a24000008eb0060082000000c7800284090008b
:104a34000028a3000400320040c0b30020449800c2
:104a440030c0b300e9023700619c2900e0c32100b3
:104a54003f060700e24f5000040036002840900053
:104a64000004a1002044980003003700284090006f
:104a74000004a00020449800a84090000040eb00ef
:104a84000108a300d9023a005070a9009008200040
:104a9400000c7800284090000028a3000400320095
:104aa40040c0b3002044980030c0b300cf023700a8
:104ab400818280000138a30003003a000004a100b1
:104ac40020449800020037000004a000204498000d
:104ad400284190000040eb000208a300c3023a0002
:104ae4000130a0008182880000c521000008eb008d
:104af400a0082000000c7800284090000028a300a3
:104b04000400320040c0b3002044980030c0b30019
:104b1400b602370012c0b300a103210000c5210072
:104b24007f050700e24f5000040036002840900043
:104b34000004a1002044980003003700284090009e
:104b44000004a00020449800a84090000040eb001e
:104b54000108a300a5023a005070a900d008200063
:104b6400000c7800284090000028a30004003200c4
:104b740040c0b3002044980030c0b3009b0237000b
:104b8400818280000138a30003003a000004a100e0
:104b940020449800020037000004a000204498003c
:104ba400284190000040eb000208a3008f023a0065
:104bb4000130a00081828800e0c321000008eb00de
:104bc400e0082000000c7800284090000028a30092
:104bd4000400320040c0b3002044980030c0b30049
:104be40082023700c1a22900e0c32100d8050700d2
:104bf400e24f500004003600284090000004a10059
:104c04002044980003003700284090000004a000ce
:104c140020449800a84090000040eb000108a30045
:104c240072023a00e0c321000008eb00f008200003
:104c3400000c7800284090000028a30004003200f3
:104c440040c0b3002044980030c0b300670237006e
:104c5400a103210091407800e0c3210076030700fe
:104c6400e24f500004003600284090000004a100e8
:104c74002044980003003700284090000004a0005e
:104c840020449800a84090000040eb000108a300d5
:104c940056023a005070a9003ad0bf00a2c0b30037
:104ca4000440bc00e2818800708280000008a300f8
:104cb40087003a00808180000000e00005003a008f
:104cc40013aeab000a013a00100020008081880076
:104cd40007013700e10f500027003a002e10ec00c6
:104ce40070818800ef0f50001e0034003000200057
:104cf400808188002e30ef00e0c321000008eb0023
:104d0400e0092000000c7800284090000028a3004f
:104d14000400320040c0b3002044980030c0b30007
:104d240032023700e1a42900e0c32100880507000e
:104d3400e24f500004003600284090000004a10017
:104d44002044980003003700284090000004a0008d
:104d540020449800a84090000040eb000108a30004
:104d640022023a0013aeab00e10032002000200022
:104d740080818800de003700e20f50000c003a000a
:104d84002e10ec00708188003810e30003003e0010
:104d94002e30ef003030ef00d500370013aeab00fb
:104da400d3003a004000200080818800d000370002
:104db400e30f500007003a00c5fc070013aeab0038
:104dc400cb003200c5fc07003030ef002e30ef007e
:104dd400c7003700e40f500020003a0013aeab00c8
:104de400c3003200e0c321000008eb00600b200088
:104df400000c7800284090000028a3000400320032
:104e040040c0b3002044980030c0b300f70137001d
:104e1400b1a52900e0c321004d050700e24f500071
:104e240004003600284090000004a10020449800ab
:104e340003003700284090000004a000204498009c
:104e4400a84090000040eb000108a300e7013a00ed
:104e54005000200080818800a5003700e50f500035
:104e6400a3003a002e10ec0070818800fe0f500061
:104e740002003e0096fc07009d003700e2fc2f0074
:104e840000014100f90f510002003e0090fc0700b0
:104e94009700370011fa2f0080804000f98f5000ee
:104ea40002003e008afc07009100370081072000c1
:104eb400810f50000400340088fc07002e30ef00fe
:104ec4003030ef008a00370084fc07008800370088
:104ed4000008a30086003200a08180000000e000ea
:104ee40005003a00138eab0081003a001000200048
:104ef400a08188007e003700e10f500027003a00af
:104f04003210ec0090818800ef0f50001e00340036
:104f140030002000a08188003230ef00e0c321007f
:104f24000008eb00300d2000000c780028409000b1
:104f34000028a3000400320040c0b30020449800bd
:104f440030c0b300a9013700f1a62900e0c3210055
:104f5400ff040700e24f5000040036002840900090
:104f64000004a1002044980003003700284090006a
:104f74000004a00020449800a84090000040eb00ea
:104f84000108a30099013a00138eab0058003200c7
:104f940020002000a081880055003700e20f500057
:104fa4000c003a003210ec00908188003810e300c5
:104fb40003003e003230ef003430ef004c00370085
:104fc400138eab004a003a0040002000a081880004
:104fd40047003700e30f500007003a003cfc07008d
:104fe400138eab00420032003cfc07003430ef006b
:104ff4003230ef003e003700e40f500020003a004a
:10500400138eab003a003200e0c321000008eb002d
:10501400b00e2000000c7800284090000028a30067
:105024000400320040c0b3002044980030c0b300f4
:105034006e013700c1a72900e0c32100c4040700a2
:10504400e24f500004003600284090000004a10004
:105054002044980003003700284090000004a0007a
:1050640020449800a84090000040eb000108a300f1
:105074005e013a0050002000a08188001c00370027
:10508400e50f50001a003a003210ec0090818800bd
:10509400fe0f500002003e000dfc07001400370014
:1050a400e2fc2f0000014100f90f510002003e0014
:1050b40007fc07000e00370011fa2f008080400023
:1050c400f98f500002003e0001fc07000800370081
:1050d40081072000810f500004003400fffb07000b
:1050e4003230ef003430ef0001003700fbfb0700e3
:1050f4005c010700f0fa0700208280004210e30000
:10510400fc003200108288004c10e2007d00320066
:105114000000e0001c003a00e0c321000008eb009e
:1051240070102000000c7800284090000028a30094
:105134000400320040c0b3002044980030c0b300e3
:105144002a01370001a92900e0c3210080040700d7
:10515400e24f500004003600284090000004a100f3
:105164002044980003003700284090000004a00069
:1051740020449800a84090000040eb000108a300e0
:105184005e003200190137008000e900e28f500010
:105194001c003e00e0c321000008eb00901020003a
:1051a400000c7800284090000028a300040032007e
:1051b40040c0b3002044980030c0b3000b01370056
:1051c40041aa2900e0c3210061040700e24f500016
:1051d40004003600284090000004a10020449800f8
:1051e40003003700284090000004a00020449800e9
:1051f400a84090000040eb000108a3003f003200eb
:10520400fa0037006401500001062000810f5100ac
:105214001c003e00e0c321000008eb00b010200099
:10522400000c7800284090000028a30004003200fd
:1052340040c0b3002044980030c0b300eb003700f6
:1052440091ab2900e0c3210041040700e24f500064
:1052540004003600284090000004a1002044980077
:1052640003003700284090000004a0002044980068
:10527400a84090000040eb000108a3001f0032008a
:10528400da00370041062000810f500099003600f3
:10529400e0c321000008eb00d0102000000c7800cf
:1052a400284090000028a3000400320040c0b3004e
:1052b4002044980030c0b300cc00370001ad290071
:1052c400e0c3210022040700e24f5000040036002e
:1052d400284090000004a1002044980003003700f7
:1052e400284090000004a00020449800a8409000aa
:1052f4000040eb000108a300bc003a004c10e2009f
:105304007c003a00208280000000e0001c003a008b
:10531400e0c321000008eb0020112000000c7800fd
:10532400284090000028a3000400320040c0b300cd
:105334002044980030c0b300ac00370001a9290014
:10534400e0c3210002040700e24f500004003600cd
:10535400284090000004a100204498000300370076
:10536400284090000004a00020449800a840900029
:105374000040eb000108a3005e0032009b003700f0
:105384008000e900e28f50001c003e00e0c32100d1
:105394000008eb0040112000000c78002840900029
:1053a4000028a3000400320040c0b3002044980049
:1053b40030c0b3008d00370051ae2900e0c3210096
:1053c400e3030700e24f5000040036002840900039
:1053d4000004a100204498000300370028409000f6
:1053e4000004a00020449800a84090000040eb0076
:1053f4000108a3003f0032007c0037006401500024
:1054040001062000810f51001c003e00e0c3210072
:105414000008eb0060112000000c78002840900088
:105424000028a3000400320040c0b30020449800c8
:1054340030c0b3006d003700c1af2900e0c32100c4
:10544400c3030700e24f50000400360028409000d8
:105454000004a10020449800030037002840900075
:105464000004a00020449800a84090000040eb00f5
:105474000108a3001f0032005c0037004106200031
:10548400810f50001b003600e0c321000008eb0030
:1054940080112000000c7800284090000028a30010
:1054a4000400320040c0b3002044980030c0b30070
:1054b4004e00370041b12900e0c32100a4030700d6
:1054c400e24f500004003600284090000004a10080
:1054d4002044980003003700284090000004a000f6
:1054e40020449800a84090000040eb000108a3006d
:1054f4003e003a00284090000074a1002044980027
:10550400e0112000000c7800284090000028a3003f
:105514000400320040c0b3002044980030c0b300ff
:10552400320037000004e00003003d000004a10045
:1055340020449800020037000004a0002044980092
:10554400a84090000040eb000108a30027003a00a7
:10555400d60e07003004980041049800a0002000f3
:10556400010020005004980061049800f01120000c
:10557400000c7800284090000028a30004003200aa
:1055840040c0b3002044980030c0b3001700370077
:1055940058019000e801900038009000c800900085
:1055a4004f0507000000e00004003200284090008e
:1055b4000004a10020449800030037002840900014
:1055c4000004a00020449800a84090000040eb0094
:1055d4000108a300b4fd32000400370080c0b3000a
:1055e40020449800000ceb0030c0b3004f04780056
:1055f40000000600e0ca21001000a200000006001e
:1056040080e588000000060020cb2100100078000f
:105614000000a20000f0a7000000ea000000e9007a
:105624004f00de000000060090e5800000f0a700b7
:105634000000ea000000e9004f00de000000060060
:105644001000200090e588000000060020cb210017
:105654000008eb000000060020cb21001000a2008f
:1056640000000600e08180003e10e30006003600e2
:105674004082800051828000810050002182880095
:10568400508288003e30ef003e30ec0020828000e3
:105694000000e00003003a00ecff07004630ef0092
:1056a4001f0037008000e900f88f50000c003e0016
:1056b4004c10e20003003a00e1ff07004630ef001f
:1056c4001700370030828000ef0f500002003600d0
:1056d400e1ff07004630ef004630ec0010003700d1
:1056e4007a015000a1042000810f510007003e0000
:1056f400200320004610e30002003600d6ff070016
:105704004630ef004630ec0005003700410620002b
:10571400810f500002003600c9ff07004630ef0039
:1057240000000600a0e588000000060060cb210010
:10573400100078000000a20000f0a7000000ea00ba
:105744000000e9004f00de0000000600b0e5800024
:1057540000f0a7000000ea000000e9004f00de00ae
:105764000000060010002000b0e5880000000600dc
:1057740060cb21000008eb000000060060cb210094
:105784001000a20000000600fcff07000000060055
:10579400c0e5880000000600d0e580000000060097
:1057a400c0cb21008080e900910078001080500077
:1057b40000000600faff070000f0a7000000ea005e
:1057c4000000ea004f00de0000000600f9ff0700b9
:1057d400800078000000eb000100e00006003200c9
:1057e400efff070080007800100020000100e000b7
:1057f40001003c000000eb0000000600edff070084
:10580400800078000000eb000100e000020032009c
:10581400e3ff07004f00de0000000600e5ff07007d
:10582400800078000000eb000100e0000600320078
:10583400dbff07008000780010002000f48f500088
:1058440001003c000000eb0000000600d9ff070047
:10585400800078000000eb000100e0000900320045
:10586400cfff0700800078000000eb00ea8f5000b3
:105874000400340010002000f48f500001003400b4
:105884000000eb0000000600caff0700800078005b
:105894000000eb000100e00009003200c0ff070037
:1058a400800078000000eb000100e00004003400f8
:1058b40010002000ea8f5000010034000000eb00cb
:1058c40000000600508ea900568ea9005a8ea90029
:1058d4005c8ea9001fcea90011cea9001bcea90081
:1058e4001dcea9001feea90011eea9001beea90010
:1058f4001deea90076f907007ef9070086f9070076
:105904001f0ea900110ea8001b0ea9001d0ea90050
:105914001f2ea900112ea8001b2ea9001d2ea900c0
:10592400c0ef2100fb02070000000600b0b229000e
:10593400cf02070066f907006ef9070076f9070041
:10594400508ea900568ea9005a8ea9005c8ea9001b
:105954001fcea90011cea9001bcea9001dcea900ff
:105964001feea90011eea9001beea9001deea9006f
:105974001f0ea900110ea8001b0ea9001d0ea900e0
:105984001f2ea900112ea8001b2ea9001d2ea90050
:1059940020d72100df020700421f2000030020005f
:1059a40060bc22008c04070060072200d9020700b3
:1059b40080e82100d7020700000006000000210053
:1059c400e1bb2100010878008000eb001100980081
:1059d4002100980002042000320098008000210079
:1059e400e3bf21000308780011009800210098000b
:1059f40032009800130d0700000006000080fb0031
:105a04004400de00e94f5000020036007043b0004d
:105a1400010037000043b000000006006f40600042
:105a2400e94f5000020036007043b0000100370017
:105a34000043b00000000600881f780000047800ce
:105a4400284090000074a0002044980018017800b9
:105a54000200e0000400320031052000810f5100f3
:105a640027003a000c00370081417800b20221007f
:105a740003497800118080008100e800618188007a
:105a840002042000828f500001003a002c30ef0005
:105a940031052000010c78000028a3000400320026
:105aa40040c0b3002044980030c0b3001800370051
:105ab4006181800022808000810f51000300320048
:105ac4000004a10020449800020037000004a00054
:105ad40020449800284190000040eb000208a300f5
:105ae4000b003a000000210010814000b3022100a5
:105af400934178000349780011009800a80c07002e
:105b040080c0b30020449800000ceb0030c0b30008
:105b14004f04780000000600889fbe00000478004f
:105b240081447800284090000074a000204498002c
:105b3400180078000000e00004003200a1062000f4
:105b4400810f50003f003a001900370001c3b30031
:105b540020c721000148780081c7b3000000e80095
:105b64000148780009407800a4ff070041c72100dc
:105b74008048780009407800a8ff070051c7210039
:105b8400804878000100e8000048eb002a70ef002c
:105b94000210ec004081880001042000810f5000b5
:105ba40001003a002830ef00a0062000000c780025
:105bb400284090000028a3000400320040c0b30035
:105bc4002044980030c0b300220037004181800097
:105bd40022808000810f5100030032000004a100e4
:105be40020449800020037000004a00020449800dc
:105bf400284190000040eb000208a30015003a0081
:105c04000000210090814000a2022100124178008e
:105c14000282fb0025c721000482420094497800d7
:105c24000241e80002427800a3022100844978007e
:105c3400110098005a0c07002ad0bf00e34f50000f
:105c4400d3ff360080c0b30020449800000ceb0062
:105c540030c0b3004f04be0000000600881f780067
:105c640000047800284090000074a00020449800ac
:105c7400180078000000e000040032004108200011
:105c8400810f500067003a00410037002670ef0092
:105c940030c6b30080cf50000a0036000181fb00fb
:105ca4004211de00b04721000011b8000301d10009
:105cb400d0c6210003c3b3000348410010c0b300a1
:105cc40026f0b700e9cf50001400360026d0bf00fc
:105cd4000081fb00d3c62100828141000181fb00c9
:105ce400c212de00b4472100042ab8008502d100a4
:105cf4004406200084aab900040151000281fb007b
:105d0400d5cc2c000512b8004329de0004c3b3002f
:105d1400844941000040e80026f0b70062022100f7
:105d2400124178008281fb00d0c62100830140002b
:105d34008180fb00d4cc2c00040ab800432ade0086
:105d4400ea22b9008480500004c3b30084c940002f
:105d54008240e80062022100014978008180fb0052
:105d6400010040000048eb002770ef002a003700d4
:105d74000210ec002081880001042000810f5000f3
:105d840001003a002430ef0040082000000c7800a5
:105d9400284090000028a3000400320040c0b30053
:105da4002044980030c0b3002200370021818000d5
:105db40024808000810f5200030032000004a100ff
:105dc40020449800020037000004a00020449800fa
:105dd400284190000040eb000208a30015003a009f
:105de40000002100908140007202210012417800dd
:105df4000282fb00d5c62100048242009449780047
:105e04000241e800024278007302210084497800cc
:105e140011009800e20b070027d0bf002650e300d2
:105e2400d3ff3e0080c0b30020449800000ceb0078
:105e340030c0b3004f04780000000600889fbe0005
:105e44008a9fbe008c1f7800000678000204be0002
:105e54002c4090000074a000204698001c0078009c
:105e64000000e00004003200410a2000810f5000cd
:105e74005f003a003900370001c3b30020c6210097
:105e84000148780081c7b3000000e80001487800a9
:105e9400481dde000b0020000a407800d7fe0700f2
:105ea40041c62100804878000a407800dbfe0700e4
:105eb40051c6210080487800404dde000b002000d0
:105ec4000a407800cdfe070061c6210080487800b2
:105ed4000a407800d1fe070071c62100804878008e
:105ee400c84dde004848dd004845de000a05700064
:105ef4000a407800c1fe070081c62100804878006e
:105f04000a407800c5fe070091c621008048780049
:105f140008407800b9fe0700a1c621008048780037
:105f240008407800bdfe0700b1c621008048780013
:105f34000100e8000048eb002270ef000210ec00c2
:105f44000081880001042000810f500001003a0004
:105f54002030ef00400a2000000e78002c40900012
:105f64000028a3000400320040c0b300204698007b
:105f740030c0b300220037000181800022808000fd
:105f8400810f5100030032000004a1002046980054
:105f9400020037000004a000204698002c41900025
:105fa4000040eb000208a30015003a0000002100a5
:105fb4009081400022022100124178000282fb00fd
:105fc40025c6210004824200944978000241e80079
:105fd40002427800230221008449780011009800cd
:105fe4006f0b070022d0bf00e94f5000d3ff3600eb
:105ff40080c0b30020469800000eeb0030c0b30010
:106004004f0678004f05be004f04be000000060096
:10601400881f780000047800284090000074a000d5
:1060240020449800180078000000e00004003200ca
:10603400910b2000810f500033003a000e0037000e
:1060440082417800c001210003487800d180880093
:106054001d70ef002a0037000210ec00f080880069
:1060640001042000810f500001003a001e30ef00af
:10607400900b2000000c7800284090000028a3001a
:106084000400320040c0b3002044980030c0b30084
:1060940021003700f180800024808000810f5200ad
:1060a400030032000004a1002044980002003700dd
:1060b4000004a00020449800284190000040eb0018
:1060c4000208a30014003a000200210012824000da
:1060d400d3012100934178000380fb001a10b4001f
:1060e400104a78008341e80003427800d00121007f
:1060f4000448780011019800290b07001c70ed007a
:106104001c50e200d4ff3a0080c0b3002044980041
:10611400000ceb0030c0b3004f0478000000060010
:10612400a04190000374a0002340980090017800df
:106134000300e00004003200d40c2000848f5100de
:1061440034003a00070037005301210082497800e7
:10615400b18088001870ef002a003700d30c2000ab
:1061640003087800a04190000328a3000400320033
:1061740041c0b3002140980033c0b3002900370068
:10618400840021009402900024029000848f520025
:10619400030032000304a1002340980002003700ea
:1061a4000304a00023409800204290008041eb00ab
:1061b4000408a3001b003a000c30ec000304200088
:1061c40065808000838f520001003a000c30ef009c
:1061d4008301210093417800840021009402780017
:1061e40024029000848242000382fb000482400067
:1061f400154a78008341e800834278008401210035
:10620400054a7800830121009341780082cf510030
:10621400d2ff390081c0b300214098000008eb0090
:1062240033c0b30003407800000006002041900012
:106234000274a00022409800100178000200e000df
:1062440004003200e30d2000830f51003a003a00ad
:10625400030037001470ef00e20d200002087800fc
:10626400204190000228a3000400320041c0b30082
:106274002140980032c0b30033003700830021006e
:1062840013029000a3019000830f52000300320018
:106294000204a10022409800020037000204a0007a
:1062a40022409800a04190000041eb000308a300a5
:1062b40025003a000c30ec000204200063808000ca
:1062c400828f510001003a000c30ef00430121009d
:1062d400934178008200210012027800220190008c
:1062e40002014200124178000382fb000482400054
:1062f400024a7800ea4f51000a003200ed4f510083
:10630400080032000204e000060032008341e80085
:1063140044012100034a7800e2c3b30082cf510054
:10632400cdff360042012100124178000281fb00ba
:10633400828040008048eb0081c0b3002140980077
:106344000008eb0032c0b3000240780000000600f1
:10635400881f780000047800284090000074a00092
:1063640020449800180078000000e0000400320087
:10637400210f2000810f500029003a000a00370045
:1063840081808800230037000210ec009080880090
:1063940001042000810f500001003a001230ef0088
:1063a400200f2000000c7800284090000028a30053
:1063b4000400320040c0b3002044980030c0b30051
:1063c4001b0037009180800022808000810f5100e3
:1063d400030032000004a1002044980002003700aa
:1063e4000004a00020449800284190000040eb00e5
:1063f4000208a3000e003a0002002100928140002e
:1064040080808000b0497800808088001101980065
:10641400630a0700808080001004e000daff3a007d
:1064240080c0b30020449800000ceb0030c0b300df
:106434004f04780000000600804178000210ec0050
:1064440001042000810f500001003a000000eb001d
:106454000410e300feff320001002100110140009e
:1064640003497800900098004d0a070000000600d8
:10647400889fbe008a1f7800904078000104e000e5
:106484001100320000047800090420000005eb002c
:106494000210ec00890f500001003a000a00780055
:1064a4000410e300feff32000200210092014000cc
:1064b4008149780010019800390a0700d840780013
:1064c4000104e000f2ff3a004f0578004f04be00db
:1064d4000000060080002100900090002000900041
:1064e400808f5000fbff32000c30ec0000042000d1
:1064f4000c10e30001003a000c30ef008000210092
:106504009000780020009000008040001040780047
:1065140000000600800078002305210093417800e4
:106524000000eb00efcf510058003e0095c2800000
:10653400818f520014003200448621000043eb0096
:10654400064078000641780017c0b3000400370005
:106554009402780072024200818f52000c003200d3
:106564000604e00004003a000500e00002003a00de
:1065740002407800074378000241e800f04f5100e0
:10658400f3ff3a00420037000040eb00004178007e
:106594008280fb00e4842100f20bb90086034200f0
:1065a4008002eb00850b78008483e8008683430037
:1065b400854b780006034200060b90001603780012
:1065c400250398008382fb00e696210085024300a0
:1065d400824a78008341e800834278002205210042
:1065e400054978000080fb00f201b9000202420074
:1065f400740190000200e00007003a00a2828000cb
:106604000201e800a2828800f200b900c3852100db
:106614000300400002087800f209b900e084210078
:106624000000410019003700e484210022c1b300b6
:106634000440bc0082024200a10298008000eb00ea
:10664400810a78000483e80002034300014b7800c8
:106654000509900012017800210198008380fb0055
:10666400e296210081004100804878008341e800df
:106674008340780020052100014878005410ec0084
:10668400a0828800f002980005007800000006004f
:106694000604e000e4ff3a000000eb00fbff3700d3
:1066a4000003780024052100144278000040eb0028
:1066b4000404e00018003200d39621008000eb00af
:1066c400e78421005340780000c1e800e14f510005
:1066d4000d00360022c1b3000440bc000280430018
:1066e40020009000860f500007003a00e096210039
:1066f40081024000e0cfb300804a78005010a80027
:1067040010c0b300040037008100e800814f52003c
:10671400ecff3e000040eb000000060000037800a0
:1067240025052100954278000000eb000504e000f7
:1067340011003200d39621008040eb00e484210054
:106744005340780000c1e800e14f510006003600d4
:1067540022c1b3000440bc000400410020019000a9
:10676400860f5100040032008140e80085cf5000bc
:10677400f3ff39000000eb0000000600000378007e
:1067840025052100954278000000eb000504e00097
:1067940011003200d39621008040eb00e4842100f4
:1067a4005340780000c1e800e14f51000600360074
:1067b40022c1b3000440bc000400410070019000f9
:1067c400860f5100040032008140e80085cf50005c
:1067d400f3ff39000000eb0000000600f0cb80005e
:1067e4000000e000050032000199210010002000a3
:1067f4001100e00006003a00010037000000eb0041
:10680400f200b900e19721000100400005003700c3
:106814000000e800f2804000f00f5000f4ff3a005e
:106824000000eb0000000600d0828800e1828800ae
:1068340000000600d0828000e182800092e52b00f7
:10684400828ab900661a24008683b90006024200cf
:106854000201b80083014200400ade000500200066
:10686400711a240081abb9000120b80081004300f3
:10687400cf0ade00410bdd004f02de00040273008c
:10688400040141008581490000f0a1008000eb0073
:10689400c002dd00040020000200420083804a00a0
:1068a40004003b0012002000030028000000410007
:1068b40081804900d0828800e182880000000600bf
:1068c400889fbe0081004000810f500023003100ea
:1068d40052dc2900c3112800c812dd000400200086
:1068e4000204410083844900441bdd00cc13de0014
:1068f400870373004413dd000804430089844b00bc
:106904000804410089844900471bdd00c913de00e7
:10691400870373004713dd000804430089844b0098
:10692400481bdd00c813de00870373004813dd0035
:106934000801430089814b000201420083814a001f
:106944003082fb008002eb0004016900858169004c
:10695400808f5000e0ff3e000200370052dc290027
:10696400c311280002816900020078004f04be00b0
:106974000000060081004000810f50002600310015
:106984001284800023848000020341008383490031
:10699400441add00cc12de00850272004412dd00d0
:1069a4000602420087824a000402410085824900af
:1069b400471bdd00c913de00870373004713dd00a6
:1069c4000402430085824b00481bdd00c813de002f
:1069d400870373004813dd000402430085824b00e3
:1069e400c811dd0002002000040141008581490036
:1069f40012848800238488003082fb008002eb002c
:106a04000401690085816900128488002384880058
:106a1400808f5000daff3e001084800021848000c3
:106a2400000006001004e0002600320012848000fa
:106a3400238480000203410083834900441add005b
:106a4400cc12de00850272004412dd000602420010
:106a540087824a000402410085824900471bdd0009
:106a6400c913de00870373004713dd0004024300eb
:106a740085824b00481bdd00c813de0087037300ca
:106a84004813dd000402430085824b00c811dd0079
:106a9400020020000401410085814900128488001d
:106aa400238488001082fb008002eb00040169004b
:106ab4008581690012848800238488005004e000e2
:106ac400daff3a0010848000218480000000060070
:106ad400008068000000060000c1b300000006004a
:106ae400889fbe008a9fbe000004be000205be004f
:106af4006e0907000801500089815800880f500072
:106b0400898f58000200310061015100e081590071
:106b1400100020008a0f51008b8f590001003e00a5
:106b24000000eb004f05be004f04be00000006004d
:106b3400889fbe008a9fbe006905210099447800a1
:106b44000904e000210032000044eb001b00200097
:106b5400eaa921000880fb008058dd00c282800081
:106b64008100610015003200ea02b900e60042002b
:106b7400810045000083eb008083eb00310143007a
:106b8400a1814b00040245003202980043029800a0
:106b9400e00f5100e08f590007003a0084007800ac
:106ba40011019000a1019000b2009800c300980068
:106bb40011007800000001008944e9000904e000a4
:106bc400020032000844e800e2ff37004f05be002f
:106bd4004f04be0000000600889fbe008a9fbe00ce
:106be4000205be00690521009944780080c2eb00cb
:106bf400efcf540021003e00c68280000608a300a7
:106c0400090032008000eb00170020008142e800f8
:106c14008100e800010478008139dd00068261000a
:106c240013003a0003003700130020000004eb00b7
:106c34008042eb00ea44b900e1a921000884400045
:106c440088007800801878008a88be003a0498008a
:106c54004b0498008944e8008940780060052100cd
:106c64000148780003037300c682880003003700dc
:106c7400ef8f5000e5ff3a0080c2eb00054078003a
:106c84004f05be004f04be00000006008081fb00db
:106c9400120020000311dd00c182800001026100a6
:106ca4000040eb0009003200ea18b900e3a9210012
:106cb400808141008009eb005670ed000281ea00fa
:106cc40001006100c082880010c0b300000006000b
:106cd40000037800630521009341780000c0eb00b5
:106ce4000304e00012003200c58280000040eb0083
:106cf40014002000e7a921008080fb000121dd00b1
:106d04000501610005003200ea09b90082804300f0
:106d1400910f1300060032008341e9000304e000f0
:106d2400020032000040e800f3ff370000c0eb002f
:106d3400000006000202be008080fb001300200059
:106d44008119dd00c0828000830160000040eb00f7
:106d540005003200ea08b90002aa210082004000be
:106d64008488be0010c0b30000000600889fbe00e7
:106d74008a9fbe008c9fbe008e1f7800298521004b
:106d8400dd9621002a982100eb082100ec0c21005b
:106d94000004eb000b0778000000eb00800c780087
:106da40080eeeb00000d78004240dd000e00400054
:106db400e0049800c340dd00e2b32100828d40006e
:106dc4008c0078004c0607000804e800f2844400b4
:106dd40072054500e48545008c07b000f00f5400af
:106de400edff3a005830ef00e0a92100020a20002c
:106df400000141008000eb00010878006a004000b7
:106e0400820f5000fcff3a005270ef005370ef0005
:106e14005670ef0000012000d08288005c30ef0043
:106e24009608070073080700e4fa0700bffa070092
:106e34004f0778004f06be004f05be004f04be004a
:106e440000000600889fbe008a9fbe008c9fbe0083
:106e54008e1f7800c5ff07005430ef00de96210036
:106e6400e98421008e06e8002c0521001c467800e8
:106e74000c04e000110032008e0578000044eb00a1
:106e84005b85fb00f250b90080804400010078006b
:106e9400a100900001000100e34f500004003a00fb
:106ea400f255b9000a8544002a009000fcfd070051
:106eb4000844e800884f5600f1ff3e0083828000ba
:106ec4000308a300e8ff32002205210012417800e4
:106ed4000280fb0000804600e1cfb30090cf100099
:106ee4000f003a000240e800804f560007003600c9
:106ef4008080fb008180460011427800f4f89f00f6
:106f04000040e800804f5600f9ff3e000c80fb0073
:106f14000080460080c0eb0071f89f000c46e90039
:106f24000204e000020032000241e900e8ff3700f9
:106f34000c40780052f0b7000300a100838288005f
:106f4400c9ff3700000178008001eb00909e2e00fd
:106f54000100200083ee070066015000e081580024
:106f64002210880007e2a8000000060020429000da
:106f74000474a000244098009001780025052000a6
:106f8400858f51002800320006003e000300e00017
:106f94000b00320002052000828f510068003a0085
:106fa4000c00370051052000818f5100340032005d
:106fb400e3804000818f510061003a004e003700a9
:106fc40082427800d306210085497800020520001a
:106fd400020878000428a3000400320041c0b30072
:106fe4002140980032c0b3005900370032108000ad
:106ff4007f01610003003a000404a10024409800ca
:10700400020037000404a00024409800a04190002e
:107014000041eb000308a3004d003a000662a800fb
:107024002205200002087800204190000228a300d5
:107034000400320041c0b3002140980032c0b300c4
:10704400430037000822ab00030032000204a10011
:1070540022409800020037000204a0002240980059
:10706400a04190000041eb000308a30038003a005f
:107074000210800082487800510520000108780041
:10708400a04090000128a3000400320041c0b300d6
:107094002140980032c0b3002d0037003210800028
:1070a4007f01610003003a000104a100214098001f
:1070b400020037000104a00021409800a040900085
:1070c4000041eb000108a30021003a00d106210091
:1070d40091407800e1806000c508dd003210800036
:1070e4000250a10002817000321088000682a800bc
:1070f4008105200001087800a04090000128a30029
:107104000400320041c0b3002140980032c0b300f3
:107114000f0037000682ab0003003a000104a1000f
:1071240021409800020037000104a000214098008b
:10713400a04090000041eb000108a30004003a00c5
:1071440081c0b300214098000008eb0032c0b300b6
:107154000240780000000600a04290000574a000e0
:107164002540980010027800c6062000860f5200c1
:107174002d00320006003e000400e0000b00320047
:10718400b1062000810f52006d003a000f00370055
:10719400e1062000810f52003c003200e3804000f1
:1071a400810f520066003a00530037000143780013
:1071b400c4062100064a780052838800438388006d
:1071c4000602a800b1062000010878000528a300e3
:1071d4000400320041c0b3002140980031c0b30024
:1071e4005b0037000602ab0003003a000504a1006f
:1071f40025409800020037000504a00025409800af
:10720400204190008040eb000208a30050003a00a7
:10721400c106210091407800e10fb20011108800ee
:10722400c106200001087800a04090000128a300b6
:107234000400320041c0b3002140980031c0b300c3
:107244004300370009c2ab0003003a000104a10067
:1072540021409800020037000104a000214098005a
:10726400204190008040eb000208a30038003a005f
:107274006630ef0019003700518380009180fb00d5
:1072840011108800e106200001087800a040900059
:107294000128a3000400320041c0b300214098003b
:1072a40031c0b3002a00370009c2ab0003003a0022
:1072b4000104a10021409800020037000104a0004d
:1072c40021409800204190008040eb000208a30078
:1072d4001f003a006a30ec006630ec004183800005
:1072e40032838000810f5100e3ff39000642a80079
:1072f4001107200001087800a04090000128a30095
:107304000400320041c0b3002140980031c0b300f2
:107314000f0037000642ab0003003a000104a1004d
:1073240021409800020037000104a0002140980089
:10733400204190008040eb000208a30004003a00c2
:1073440081c0b300214098000008eb0031c0b300b5
:107354000140780000000600889fbe000004780009
:10736400284290000474a000244498001800780077
:1073740065082000850f50003000320006003e00f2
:107384000000e0000e00320051082000810f500080
:1073940092003a0012003700b1082000810f50001b
:1073a400610032008100e800810f50007900320052
:1073b400e4805000810f500088003a003700370005
:1073c4008142780040062100054878001283880035
:1073d400038388000602a80050082000000c7800ef
:1073e4000428a3000400320040c0b30020449800e5
:1073f40030c0b3007d0037000602ab0003003a0042
:107404000404a10024449800020037000404a000ee
:1074140024449800a84090000040eb000108a30019
:1074240072003a0064d0bf000004a0000080fb009a
:107434001010880060082000000c7800284090009c
:107444000028a3000400320040c0b3002044980088
:1074540030c0b3006500370009c2ab0003003a0036
:107464000004a10020449800020037000004a0009a
:1074740020449800a84090000040eb000108a300bd
:107484005a003a005e30ef0020003700a0c8210007
:107494000008eb0080082000000c780028409000d1
:1074a4000028a3000400320040c0b3002044980028
:1074b40030c0b3004d003700198380000041eb0059
:1074c40089007800a0c82100a8fe0700e24f500000
:1074d40004003600284090000004a10020449800d5
:1074e40003003700284090000004a00020449800c6
:1074f400a84090000040eb000108a3003b003a00c4
:107504008904e800198388005e30ec006010ed0007
:107514005e10e300ddff3900a0c821000008eb0085
:10752400b0082000000c7800284090000028a30038
:107534000400320040c0b3002044980030c0b300bf
:107544002a00370012c0b30011838000a0c82100b4
:1075540086fe0700e24f50000400360028409000e9
:107564000004a10020449800030037002840900044
:107574000004a00020449800a84090000040eb00c4
:107584000108a30019003a000642a800c008200020
:10759400000c7800284090000028a300040032006a
:1075a40040c0b3002044980030c0b3000f0037003f
:1075b4000642ab0003003a000004a10020449800f6
:1075c400020037000004a00020449800a840900066
:1075d4000040eb000108a30004003a0080c0b3009f
:1075e40020449800000ceb0030c0b3004f04be00f0
:1075f400000006008001eb001300980023009800af
:10760400020878003100980000000600800278002b
:1076140001437800a501900015017800828f510084
:107624000b00310015029000848141001100090013
:107634008281d80001017800b50190008281410067
:1076440086497800a50090008100e800a102980016
:10765400000006000002780081427800a401900036
:107664001401900082814100140178001100090086
:107674008281d80001017800b401900002814100a8
:107684000549780024019000940f510006003a0047
:10769400940090008100e800110009008280d80065
:1076a40011029800020037000201e800220298004b
:1076b400000006008002780001037800a501900014
:1076c40015017800828f51001a00310015029000d4
:1076d40084814100110009008281d80001017800f1
:1076e400b50190008281410086497800a50190008f
:1076f4008301e800a302980015017800828f5100ed
:107704000c00310015029000848141001100090031
:107714008281d80001017800b50190008281410086
:10772400c830de0081497800a50090008100e8009f
:10773400a10298000000060000037800a600900053
:1077440016027800848f50003800310096029000b1
:1077540085804000110009008480d8003602900022
:107764008100420082487800a60090008100e80071
:107774002103980016027800848f50002b003100fa
:107784009602900085804000110009008480d80092
:107794003602900081004200c81ade004818dd005d
:1077a4004812de000402700084487800a6009000ad
:1077b4008100e8002103980016027800848f5000ad
:1077c4001a003100960290008580400011000900e3
:1077d4008480d8003602900081004200401ade0006
:1077e4000500200084487800a60090008100e8008d
:1077f4002103980016027800848f50000b0031009a
:107804009602900085804000110009008480d80011
:1078140036029000810042004819de008248780058
:10782400a60090008100e8002103980000000600f3
:10783400881f780080037800010478000200e000cb
:10784400140032008001eb00a702900017027800b8
:10785400848f52000c00310017039000868242008e
:10786400110009008482d80001027800b702900058
:107874008482420003024400944a78002702900064
:107884000402e800a40398008301e800830f510078
:10789400edff3e004f04780000000600000278006f
:1078a400940090003401900001014100924178005d
:1078b4008100e80014017800110009008280d800da
:1078c40011029800a40090008100e90021029800b0
:1078d40003407800000006000003780036029000a0
:1078e400960090000101420092427800160178004f
:1078f4008100e800110009008280d800110398007b
:10790400a60190008301e900230398008582fb000f
:1079140001024200144278008100e80011000900cd
:107924008280d800110398008301e90023039800a2
:107934004820dd000500400000000600889fbe00ce
:107944008a9fbe008c9fbe0000067800bc06900093
:107954009c01900003814600124378001c017800ca
:107964008301e800110009008281d80081017800b8
:10797400130698002c0290000402e90024069800e3
